:107000006BC00000AAC000008EC000008CC0000051
:107010008AC0000088C0000086C0000084C0000054
:1070200082C0000080C000007EC000007CC0000064
:107030007AC0000078C0000076C0000074C0000074
:1070400072C0000070C000006EC000006CC0000084
:107050006AC0000068C0000066C0000064C0000094
:1070600062C0000060C00000EC2DFD2DB7B6B0FC82
:10707000FDCF27BFE895B7B6B0FCFDCF21E1B7B68D
:10708000B6FCF4CF08950902120001010080320914
:10709000040000000000000012011001FF000008C1
:1070A000C016DC050201010200010E035500530069
:1070B00042006100730070001C03770077007700C6
:1070C0002E00660069007300630068006C002E00EB
:1070D000640065000403090411241FBECFEFD8E04B
:1070E000DEBFCDBF24B7D8E0CEEF39913833399128
:1070F00009F03FEF30933E0120933D0111E0A0E005
:10710000B1E0ECEBF8E702C005900D92A630B107B4
:10711000D9F711E0A6E0B1E001C01D92AD33B1078F
:10712000E1F77FD1C9C36CCFA82FB92F80E090E0E1
:1071300041E050EA609530E009C02D918227979593
:10714000879510F084279527305EC8F36F5FA8F30A
:107150000895EADF8D939D930895CF93CFB7CF9392
:10716000DF93C3954B9BE9F74B9B0BC04B9B09C02F
:107170004B9B07C04B9B05C04B9B03C04B9B01C067
:1071800089C06F93C0912001DD27C95DDE4F2F9329
:1071900065E54B9B03C02F916F91E6CF0F931F9333
:1071A0004F9320E040E15F9309B10C7003FB27F996
:1071B0003F9350E03BE039C01C7040642F77012FB3
:1071C0005F5F1EC0406819B11C702F7752501FC0FE
:1071D000406409B12F770C70D1F15F5F00C023C00C
:1071E000406219B12F771C7091F15F5F00C025C01C
:1071F0000C701027515012F45D5F0000115027955C
:107200002C3F19B1C8F61C700127015027952C3F5F
:10721000C8F64227499309B10C7010274F731150DB
:1072200027952C3FA8F64695469519B11C7079F024
:107230000127015027952C3F98F66B5A60F3315087
:1072400009B1B0F600C011E01CBB002717C03B50CD
:107250003195C31BD04011E01CBB0881033CF9F001
:107260000B34E9F020911E011981110F1213EDCF9B
:10727000093651F10D3211F0013E39F70093250125
:107280003F915F914F911F910F912F916F91CCB3CF
:10729000C0FD67CFDF91CF91CFBFCF9118952091DF
:1072A0002501222369F310912301112339F534308C
:1072B0003AF13093230120931F01109120013BE00C
:1072C000311B309320011CC0009123010130B4F424
:1072D0000AE53091000134FD14C000930001C3E1C0
:1072E000D1E013C0052710E000C000000BB91AC0A0
:1072F000052710E0221F1DC010E021C04AE502C092
:1073000032ED432FC4E1D0E032E01AB11C605B9A49
:107310000BB11AB95CE020E865E320FF05270BB943
:10732000279517951C3FF0F66695B8F7B1F720FF43
:1073300005270BB9279517951C3FD0F6279517956C
:1073400017FF052700001C3F0BB9B0F629913A95AD
:1073500019F7037F10912401110FC651D0400BB9CA
:1073600011F010931E0111E01CBB08601AB1137FCD
:10737000402F437F54E05A95F1F70BB91AB94BB936
:107380007FCFDC0113963C911397932F1496EC91C9
:1073900014978E2F12962C911297203331F4E370AC
:1073A000F0E0EF5FFE4F80810895283529F4332304
:1073B00051F4E1E0F0E010C0203599F4332341F4BA
:1073C000E0E0F0E009C0383051F5E3E0F0E004C05F
:1073D000383029F5E2E0F0E089E0809357008491AD
:1073E0000895203221F4FC01EE0FFF1F06C0283261
:1073F00031F4FC01EE0FFF1F319684910895203A7D
:1074000009F444C2203C21F415966C9147D205C082
:107410002F3F29F481EF8093060180E0089580E0FA
:1074200008951AB880E18BB981E085BF82E085BFFD
:107430008FEF90E7A2E081509040A040E1F700C0BC
:10744000000080913D01877F21F480913E018823D7
:1074500011F04C990DC28EEF8093060184B7877F9F
:1074600084BF88E10FB6F8948093600010926000AA
:107470000FBE14BE80916900826080936900E89A13
:10748000559A5D9A539A8FEF91EBACE08150904002
:10749000A040E1F700C000005398789420912301A8
:1074A000235027FD54C1309120018CE090E0831BD4
:1074B00091098C01095D1E4F30911F013D3209F089
:1074C000C9C0283009F041C123EC209313012AE5FB
:1074D0002093000110920701D8014C91242F2076AF
:1074E00011963C9111972223D1F188E091E090937D
:1074F000220180932101333031F4C80142DF8093AF
:107500000B0124E098C0353031F13A3021F1832F5E
:1075100084508630B0F4F8018281938190930D01FC
:1075200080930C013930C9F0268120930E018581AA
:10753000827080930F013093100147FD78C02FEFC8
:1075400076C080910601323011F48E7F01C08160D7
:107550008093060102C021E06EC020E06CC0D8011B
:1075600012962C91129710921C01332331F4109231
:107570001D018CE191E022E055C0353019F42093D3
:10758000240144C03630E1F5FC01E75DFE4F208167
:10759000865D9E4FFC018081813019F488E990E777
:1075A00004C0823041F486E890E7909322018093F2
:1075B000210122E121C08330F1F4222341F484ED42
:1075C00090E7909322018093210124E015C021309F
:1075D00041F488EB90E790932201809321012CE104
:1075E0000BC0223041F48AEA90E790932201809305
:1075F00021012EE001C020E080E4809307011BC040
:10760000383069F0393029F4209326018CE191E07B
:1076100004C08CE191E03A3021F020E003C086E222
:1076200091E021E0909322018093210104C080E841
:10763000809307010CC0D80117968C911797882367
:1076400031F416968C911697821708F4282F209300
:1076500005017BC08091070187FF77C080910E01F3
:10766000E22E821708F4E82E8E1980930E01D1E0E5
:107670008111D0E0C0E062C02091100180910C0126
:1076800090910D01273068F09C012F5F3F4F3093A0
:107690000D0120930C01F80161918F01FFD0CF5FA4
:1076A0004DC0F0E780309F0708F04DC0CE5FF894E2
:1076B000E0910C01F0910D01D8018D919D918D010A
:1076C00021E00C0120935700E895112478948091D3
:1076D0000C0190910D01029690930D0180930C0185
:1076E0008F779070009741F0DD2341F1CE1530F196
:1076F00080910F01882311F1F894E0910C01F09131
:107700000D01329783E080935700E895789407B68F
:1077100000FCFDCFF894E0910C01F0910D0132973F
:1077200085E080935700E895789407B600FCFDCF7C
:10773000F89481E180935700E8957894CE1508F489
:107740009BCFDD2311F0109205011092230180914F
:10775000000184FF6CC0809105018F3F09F467C070
:10776000182F893008F018E0811B80930501809163
:10777000130198E8892780931301112309F446C067
:107780008091070187FF26C080910E01811708F4C0
:10779000182F811B80930E0100E0C4E1D1E017C0D7
:1077A00080911001E0900C01F0900D01873018F0ED
:1077B000C7016CD002C0F701849188832196089498
:1077C000E11CF11CF0920D01E0920C010F5F01171A
:1077D00039F71AC0E0912101F091220186FF09C01A
:1077E000812FA4E1B1E094919D9331968150D9F716
:1077F00007C0812FA4E1B1E091919D938150E1F701
:10780000F0932201E0932101193058F484E191E0D2
:10781000612F9FDC1C5F1C3041F08FEF80930501CE
:1078200004C08FEF809305011EE11093000184E1F5
:1078300099B19C7031F48150D9F7109224011092C3
:107840001E0180910601803130F04C9B27CE809143
:10785000060180510AC04C9921CE809106018230E8
:1078600008F41CCE8091060182508093060116CE4A
:10787000F894539A1BB81DBA1092690081E085BF35
:1078800015BEE0911101F09112010995F999FECF11
:1078900092BD81BDF89A992780B50895262FF99950
:1078A000FECF1FBA92BD81BD20BD0FB6F894FA9AE3
:0C78B000F99A0FBE01960895F894FFCFDE
:0678BC005A1E950F00FFAB
:040000030000700089
:00000001FF
